:020000040800F2
:1000000000000220CD930008294F0008314F00085E
:10001000454F00084D4F0008554F000800000000F4
:100020000000000000000000000000005D4F00081C
:100030006B4F000800000000794F0008874F000850
:100040001D9400081D9400081D9400081D940008CC
:100050001D9400081D9400081D9400081D940008BC
:100060001D9400081D9400081D9400081D940008AC
:100070001D9400081D9400081D9400081D9400089C
:10008000954F0008A94F00081D9400081D94000812
:100090001D9400081D9400081D940008BD4F000821
:1000A0001D9400081D9400081D9400081D9400086C
:1000B000CD4F00081D9400081D9400081D940008F1
:1000C0001D9400081D9400081D9400081D9400084C
:1000D0001D940008E14F0008F54F00081D9400082A
:1000E000095000081D9400081D9400081D94000884
:1000F0001D940008215000081D9400081D9400085C
:100100001D9400081D9400081D9400081D9400080B
:100110001D9400081D9400081D9400081D940008FB
:100120001D9400081D940008355000081D94000817
:100130001D9400081D9400081D9400081D940008DB
:100140001D9400081D9400081D9400081D940008CB
:100150001D9400081D940008495000081D940008D3
:100160001D9400081D9400081D9400081D940008AB
:100170001D9400081D9400081D9400080000000054
:080180001D9400081D94000805
:1001900010B5054C237833B9044B13B10448AFF3C1
:1001A00000800123237010BD4802002000000000E1
:1001B00028A4010808B5034B1BB103490348AFF35A
:1001C000008008BD000000004C02002028A40108A7
:1001D00001F0FF01102A2BDB10F0070F08D010F8F8
:1001E000013B013A8B422DD010F0070F42B3F6D1FC
:1001F000F0B441EA012141EA014122F007047FF015
:1002000000070023F0E80256083C85EA010586EA6B
:10021000010685FA47F5A3FA87F586FA47F6A5FAA7
:1002200087F68EB9EED1F0BC01F0FF0102F00702B3
:1002300032B110F8013B013A83EA010313B1F8D15E
:100240000020704701387047002D06BF354603383F
:10025000073815F0010F07D1013015F4807F02BF78
:10026000013015F4C03F0130F0BC0138704700BFC9
:10027000034613F8012B002AFBD1181A01387047E6
:1002800081F0004102E000BF83F0004330B54FEA47
:1002900041044FEA430594EA050F08BF90EA020FB4
:1002A0001FBF54EA000C55EA020C7FEA645C7FEA47
:1002B000655C00F0E2804FEA5454D4EB5555B8BF6A
:1002C0006D420CDD2C4480EA020281EA030382EADB
:1002D000000083EA010180EA020281EA0303362D6D
:1002E00088BF30BD11F0004F4FEA01314FF4801C40
:1002F0004CEA113102D0404261EB410113F0004F52
:100300004FEA03334CEA133302D0524263EB430308
:1003100094EA050F00F0A780A4F10104D5F1200EA6
:100320000DDB02FA0EFC22FA05F2801841F1000101
:1003300003FA0EF2801843FA05F359410EE0A5F1D5
:1003400020050EF1200E012A03FA0EFC28BF4CF006
:10035000020C43FA05F3C01851EBE37101F00045BC
:1003600007D54FF0000EDCF1000C7EEB00006EEBC9
:100370000101B1F5801F1BD3B1F5001F0CD3490853
:100380005FEA30004FEA3C0C04F101044FEA4452AA
:1003900012F5800F80F09A80BCF1004F08BF5FEA31
:1003A000500C50F1000041EB045141EA050130BD11
:1003B0005FEA4C0C404141EB0101013C28BFB1F523
:1003C000801FE9D291F0000F04BF01460020B1FA6E
:1003D00081F308BF2033A3F10B03B3F120020CDA41
:1003E0000C3208DD02F1140CC2F10C0201FA0CF01F
:1003F00021FA02F10CE002F11402D8BFC2F1200C84
:1004000001FA02F120FA0CFCDCBF41EA0C01904039
:10041000E41AA2BF01EB0451294330BD6FEA040482
:100420001F3C1CDA0C340EDC04F11404C4F120026D
:1004300020FA04F001FA02F340EA030021FA04F37F
:1004400045EA030130BDC4F10C04C4F1200220FAD6
:1004500002F001FA04F340EA0300294630BD21FA14
:1004600004F0294630BD94F0000F83F4801306BFDA
:1004700081F480110134013D4EE77FEA645C18BFCE
:100480007FEA655C29D094EA050F08BF90EA020F65
:1004900005D054EA000C04BF1946104630BD91EA5D
:1004A000030F1EBF0021002030BD5FEA545C05D160
:1004B0004000494128BF41F0004130BD14F580049F
:1004C0003CBF01F5801130BD01F0004545F0FE4113
:1004D00041F470014FF0000030BD7FEA645C1ABF48
:1004E000194610467FEA655C1CBF0B46024650EA7F
:1004F000013406BF52EA033591EA030F41F40021AB
:1005000030BD00BF90F0000F04BF0021704730B530
:100510004FF4806404F132044FF000054FF0000105
:1005200050E700BF90F0000F04BF0021704730B5C6
:100530004FF4806404F1320410F0004548BF40429B
:100540004FF000013EE700BF42004FEAE2014FEAF0
:1005500031014FEA02701FBF12F07F4393F07F4FCB
:1005600081F06051704732F07F4208BF704793F0CE
:100570007F4F04BF41F40021704730B54FF46074E1
:1005800001F0004521F000411CE700BF50EA0102E4
:1005900008BF704730B54FF000050AE050EA01028D
:1005A00008BF704730B511F0004502D5404261EBFD
:1005B00041014FF4806404F132045FEA915C3FF43E
:1005C000D8AE4FF003025FEADC0C18BF03325FEADB
:1005D000DC0C18BF033202EBDC02C2F1200300FA8C
:1005E00003FC20FA02F001FA03FE40EA0E0021FAB1
:1005F00002F11444BDE600BF70B54FF0FF0C4CF49F
:10060000E06C1CEA11541DBF1CEA135594EA0C0F50
:1006100095EA0C0F00F0DEF82C4481EA030621EA8B
:100620004C5123EA4C5350EA013518BF52EA0335C6
:1006300041F4801143F4801338D0A0FB02CE4FF078
:100640000005E1FB02E506F00042E0FB03E54FF0A8
:100650000006E1FB03569CF0000F18BF4EF0010EA0
:10066000A4F1FF04B6F5007F64F5407404D25FEA9C
:100670004E0E6D4146EB060642EAC62141EA55514F
:100680004FEAC52040EA5E504FEACE2EB4F1FD0C91
:1006900088BFBCF5E06F1ED8BEF1004F08BF5FEA0F
:1006A000500E50F1000041EB045170BD06F00046C1
:1006B00046EA010140EA020081EA0301B4EB5C046E
:1006C000C2BFD4EB0C0541EA045170BD41F4801166
:1006D0004FF0000E013C00F3AB8014F1360FDEBF8B
:1006E000002001F0004170BDC4F10004203C35DA67
:1006F0000C341BDC04F11404C4F1200500FA05F3EA
:1007000020FA04F001FA05F240EA020001F000428A
:1007100021F0004110EBD37021FA04F642EB060100
:100720005EEA430E08BF20EAD37070BDC4F10C042A
:10073000C4F1200500FA04F320FA05F001FA04F2EE
:1007400040EA020001F0004110EBD37041F10001DA
:100750005EEA430E08BF20EAD37070BDC4F12005E5
:1007600000FA05F24EEA020E20FA04F301FA05F24D
:1007700043EA020321FA04F001F0004121FA04F2F5
:1007800020EA020000EBD3705EEA430E08BF20EAC5
:10079000D37070BD94F0000F0FD101F000464000FF
:1007A00041EB010111F4801F08BF013CF7D041EA81
:1007B000060195F0000F18BF704703F00046520085
:1007C00043EB030313F4801F08BF013DF7D043EA56
:1007D0000603704794EA0C0F0CEA135518BF95EA0C
:1007E0000C0F0CD050EA410618BF52EA4306D1D193
:1007F00081EA030101F000414FF0000070BD50EAB2
:10080000410606BF1046194652EA430619D094EA3B
:100810000C0F02D150EA013613D195EA0C0F05D125
:1008200052EA03361CBF104619460AD181EA030179
:1008300001F0004141F0FE4141F470014FF0000031
:1008400070BD41F0FE4141F4780170BD70B54FF0CC
:10085000FF0C4CF4E06C1CEA11541DBF1CEA13554C
:1008600094EA0C0F95EA0C0F00F0A7F8A4EB05042E
:1008700081EA030E52EA03354FEA013100F0888025
:100880004FEA03334FF0805545EA131343EA1263EE
:100890004FEA022245EA111545EA10654FEA0026A3
:1008A0000EF000419D4208BF964244F1FD0404F55C
:1008B000407402D25B084FEA3202B61A65EB0305B8
:1008C0005B084FEA32024FF480104FF4002CB6EB75
:1008D000020E75EB030E22BFB61A754640EA0C00F5
:1008E0005B084FEA3202B6EB020E75EB030E22BF35
:1008F000B61A754640EA5C005B084FEA3202B6EB76
:10090000020E75EB030E22BFB61A754640EA9C0034
:100910005B084FEA3202B6EB020E75EB030E22BF04
:10092000B61A754640EADC0055EA060E18D04FEAC2
:10093000051545EA16754FEA06164FEAC30343EA62
:1009400052734FEAC2025FEA1C1CC0D111F4801F2F
:100950000BD141EA00014FF000004FF0004CB6E728
:1009600011F4801F04BF01430020B4F1FD0C88BFC7
:10097000BCF5E06F3FF6AFAEB5EB030C04BFB6EBD2
:10098000020C5FEA500C50F1000041EB045170BDC5
:100990000EF0004E4EEA113114EB5C04C2BFD4EBF2
:1009A0000C0541EA045170BD41F480114FF0000E76
:1009B000013C90E645EA060E8DE60CEA135594EAF2
:1009C0000C0F08BF95EA0C0F3FF43BAF94EA0C0FF5
:1009D0000AD150EA01347FF434AF95EA0C0F7FF46A
:1009E00025AF104619462CE795EA0C0F06D152EABE
:1009F00003353FF4FDAE1046194622E750EA4106A2
:100A000018BF52EA43067FF4C5AE50EA41047FF4B2
:100A10000DAF52EA43057FF4EBAE12E74FF0FF3C17
:100A200006E000BF4FF0010C02E000BF4FF0010CE8
:100A30004DF804CD4FEA410C7FEA6C5C4FEA430C61
:100A400018BF7FEA6C5C1BD001B050EA410C0CBFB0
:100A500052EA430C91EA030F02BF90EA020F002012
:100A6000704710F1000F91EA030F58BF994208BF79
:100A700090422CBFD8176FEAE37040F00100704736
:100A80004FEA410C7FEA6C5C02D150EA013C07D18D
:100A90004FEA430C7FEA6C5CD6D152EA033CD3D0D8
:100AA0005DF8040B704700BF8446104662468C46D2
:100AB0001946634600E000BF01B5FFF7B7FF002805
:100AC00048BF10F1000F01BD4DF808EDFFF7F4FF2E
:100AD0000CBF012000205DF808FB00BF4DF808EDB9
:100AE000FFF7EAFF34BF012000205DF808FB00BFDC
:100AF0004DF808EDFFF7E0FF94BF012000205DF8FE
:100B000008FB00BF4DF808EDFFF7CEFF94BF0120B2
:100B100000205DF808FB00BF4DF808EDFFF7C4FFAB
:100B200034BF012000205DF808FB00BF4FEA410CF4
:100B30007FEA6C5C02D150EA013C0AD14FEA430CD7
:100B40007FEA6C5C02D152EA033C02D14FF0000014
:100B500070474FF0010070474FEA410212F5001252
:100B600015D211D56FF47873B3EB625212D94FEAF4
:100B7000C12343F0004343EA505311F0004F23FADE
:100B800002F018BF404270474FF00000704750EA33
:100B9000013005D111F0004008BF6FF000407047F0
:100BA0004FF00000704700BF4A0011D212F500124A
:100BB00011D20DD56FF47873B3EB62520ED44FEAB5
:100BC000C12343F0004343EA505323FA02F0704735
:100BD0004FF00000704750EA013002D14FF0FF3073
:100BE00070474FF0000070474FEA4102B2F1E04316
:100BF00024BFB3F5001CDCF1FE5C0DD901F0004C04
:100C00004FEAC0024CEA5070B2F1004F40EB830053
:100C100008BF20F00100704711F0804F21D113F17F
:100C20003872BCBF01F00040704741F480114FEAB8
:100C30005252C2F11802C2F1200C10FA0CF320FA41
:100C400002F018BF40F001004FEAC1234FEAD3235E
:100C500003FA0CFC40EA0C0023FA02F34FEA4303C8
:100C6000CCE77FEA625307D150EA01331EBF4FF051
:100C7000FE4040F44000704701F0004040F0FE406C
:100C800040F40000704700BF53B94AB9002908BFBB
:100C900000281CBF4FF0FF314FF0FF3000F0A6B925
:100CA000ADF1080C6DE904CE00F024F8DDF804E0A5
:100CB000DDE9022304B07047D0B50C4B0022064694
:100CC0000F46FFF799FCFFF76FFF0446FFF71AFC8A
:100CD000074B0022FFF790FC02460B463046394690
:100CE000FFF7D2FAFFF760FF2146D0BD0000F03DCC
:100CF0000000F0412DE9F047089D8E4604468846E5
:100D0000002B4AD18A42174662D9B2FA82F64EB116
:100D1000C6F1200301FA06F820FA03F3B74043EACC
:100D20000808B4404FEA174E1FFA87FCB8FBFEF1E3
:100D3000230C0EFB118843EA084301FB0CF29A4294
:100D400009D9FB1801F1FF3080F0EA809A4240F2A5
:100D5000E78002393B449A1AA3B2B2FBFEF00EFBC5
:100D6000102243EA024300FB0CFC9C4509D9FB1806
:100D700000F1FF3280F0D6809C4540F2D3803B44A6
:100D8000023840EA0140A3EB0C0300211DB1F340FF
:100D90000022C5E90032BDE8F0878B4205D90DB1CC
:100DA000C5E9000100210846F5E7B3FA83F10029FF
:100DB00046D1734502D3824200F20581841A6EEB5C
:100DC000030201209046002DE5D0C5E90048E2E786
:100DD000002A00F09080B2FA82F6002E40F0A48043
:100DE0008A1A030C4FEA174E80B2BCB20121B2FB43
:100DF000FEFC0EFB1C2243EA024304FB0CF29A4267
:100E000007D9FB180CF1FF3802D29A4200F2E080B9
:100E1000C4469B1AB3FBFEF20EFB123340EA0343B7
:100E200002FB04F49C4207D9FB1802F1FF3002D206
:100E30009C4200F2CA8002461B1B42EA0C40A5E716
:100E4000C1F120068B4022FA06F71F430EFA01F487
:100E500020FA06F32EFA06FE4FEA1749234300FA5A
:100E600001F81FFA87FCBEFBF9F01C0C09FB10EE21
:100E700044EA0E4400FB0CFEA64502FA01F209D931
:100E80003C1900F1FF3A80F09C80A64540F2998021
:100E900002383C44A4EB0E041FFA83FEB4FBF9F3C2
:100EA00009FB13444EEA044403FB0CFCA44508D997
:100EB0003C1903F1FF3E80F08280A4457FD9023BBC
:100EC0003C4443EA0040A4EB0C04A0FB02EC644564
:100ED0007346E14662D35FD05DB1B8EB030264EBC9
:100EE000090404FA06F622FA01F31E43CC40C5E9D0
:100EF000006400214FE7B1FBF2FC010C41EA0E4116
:100F000080B240EA01423B4638463C46B846BE46BF
:100F10002026B1FBF7F1A2EB080241EA0C4166E79B
:100F2000014618E710462CE7C6F120022EFA02F31C
:100F3000B740B14020FA02F24FEA174E0A43B3FB22
:100F4000FEF8BCB20EFB1833110C41EA034108FB5A
:100F500004F9B04089454FEA104380B23ED9791870
:100F600008F1FF3C01D289451FD8A1EB0901B1FB73
:100F7000FEF909FB04F80EFB191192B242EA014294
:100F8000424529D2BA1809F1FF31C4D24245C2D232
:100F9000A9F102013A44BEE7F0459DD2BEEB02033F
:100FA0006CEB070C0138E14696E7A7EB09094944C9
:100FB000A8F1020CB1FBFEF909FB04F8DBE773466C
:100FC0007FE7504666E70846FDE63B44023A33E7D2
:100FD000ACF1020C3B441CE749469CE7A1EB09013C
:100FE000C446B1FBFEF909FB04F8C4E7704700BF33
:100FF00080B483B000AF78607B6800221A707B6891
:1010000000225A707B6800229A707B684FF00002C1
:101010009A607B6800221A75002318460C37BD467B
:101020005DF8047B704780B483B000AF78607B6864
:10103000002B02D14FF0FF3303E07B6801221A70CE
:10104000002318460C37BD465DF8047B704780B41A
:1010500083B000AF78607B68002B02D14FF0FF3384
:1010600003E07B6800221A70002318460C37BD4647
:101070005DF8047B704780B582B000AF78607B6814
:10108000002B02D14FF0FF3343E07B689B78012BAC
:1010900006D07B689B78022B02D06FF0010338E00A
:1010A0007B685B78002B01D0002332E07B681B6AF1
:1010B000012098477B68DB69012098477B685B6B60
:1010C000022098477B689B78012B02D0022B0ED020
:1010D0001BE07B689B6A012098470346002B03D1E5
:1010E0007B6801225A7013E06FF0040311E07B6803
:1010F0009B6A022098470346002B03D17B6801229C
:101100005A7005E06FF0040303E06FF0010300E0A4
:10111000002318460837BD4680BD80B584B000AFB7
:1011200078607B68002B02D14FF0FF331CE07B68B6
:101130001B6A002098477B68DB69002098477B6822
:10114000DB6A012098470346FB7397F90F30002BA9
:1011500008D17B68DB6A022098470346FB737B68F3
:1011600000225A7097F90F3018461037BD4680BDDF
:1011700080B483B000AF78600B46FB707B68002BB7
:1011800002D14FF0FF3310E0FB78012B05D0FB7844
:10119000022B02D06FF0010307E07B685B78002B25
:1011A00002D17B68FA789A70002318460C37BD4646
:1011B0005DF8047B70470000B0B584B000AF786084
:1011C00087ED000A7B68002B02D14FF0FF3357E018
:1011D000D7ED007AF5EEC07AF1EE10FAACBF01233C
:1011E0000023DBB283F00103DBB2002B10D1D7ED7B
:1011F000007A9FED257AF4EEC77AF1EE10FA94BFEB
:1012000001230023DBB283F00103DBB2002B02D009
:101210006FF0020334E07B683A689A607B68D3ED34
:10122000037A9FED197A37EE677AD7ED007A67EE89
:10123000277A17EE900AFFF787F94FF00002134B59
:10124000FFF704FB02460B4614461D467B68DB682D
:101250001846FFF779F902460B4620462946FFF764
:1012600015F802460B4610461946FFF7BDFC03462B
:10127000FB607B681B6B97ED030A78689847002337
:1012800018461037BD46B0BD0000C84200005940A6
:1012900080B582B000AF78607B68002B02D10C482B
:1012A00002F09EFC7B680B4ADA617B680A4A1A628C
:1012B0007B680A4A9A627B68094ADA627B68094A53
:1012C0001A637B68084A5A6300BF0837BD4680BD71
:1012D00040A40108ED1200081D130008491300087E
:1012E00089130008C9130008F914000880B582B0FA
:1012F00000AF0346FB71FB79002B14BF01230023D1
:10130000DBB21A464FF48041034809F0E3F800BF0E
:101310000837BD4680BD00BF000C024080B582B0DA
:1013200000AF0346FB71FB79002B14BF01230023A0
:10133000DBB21A464021034809F0CCF800BF083759
:10134000BD4680BD0008024080B582B000AF0346B4
:10135000FB71FB79012B02D0022B05D009E004219F
:1013600008480AF017FD07E0002106480AF012FDC0
:1013700002E06FF0010300E0002318460837BD4685
:1013800080BD00BFCC0A002080B582B000AF03460C
:10139000FB71FB79012B02D0022B05D009E004215F
:1013A00008480AF0BFFD07E0002106480AF0BAFD30
:1013B00002E06FF0010300E0002318460837BD4645
:1013C00080BD00BFCC0A002080B586B002AF786037
:1013D00087ED000A7B685B78002B07D000213F482F
:1013E0000AF0A0FD04213D480AF09CFD3B4BDB6860
:1013F000013307EE903AB8EE677ADFED396AC7EE4F
:10140000267A97ED007A67EE277AC7ED007A334B9C
:10141000DB6807EE903AF8EE677A97ED007AB4EE63
:10142000E77AF1EE10FA0DDD3868FFF78DF8024625
:101430000B462A49C96800912A4802F0D1FB6FF097
:10144000030346E00023FB73D7ED007AFCEEE77A56
:1014500017EE902A244B5A607B689B78012B02D0B0
:10146000022B0AD013E01D4B1B68D7ED007AFCEE6F
:10147000E77A17EE902A9A630FE0184B1B68D7EDB6
:10148000007AFCEEE77A17EE902A5A6305E01748D7
:1014900002F0A6FB6FF001031BE0FB7B002B05D0E5
:1014A000134802F09DFB6FF0070312E07B685B7846
:1014B000002B0DD07B689B781846FFF745FF03464D
:1014C000002B05D00B4802F08BFB6FF0040300E00B
:1014D000002318461037BD4680BD00BFCC0A00204F
:1014E0000000C84264A401086402002094A401081A
:1014F000B8A40108E8A4010880B582B000AF786004
:10150000012007F0FFFF00BF0837BD4680BD80B552
:1015100084B000AF78607B68002B02D16FF00103CC
:1015200030E07B6800221A707B68002283F841203B
:101530007B68002283F842207B68002283F84020E9
:101540007B684FF000025A607B6800221A817B683A
:1015500000225A817B6800229A737B681B6E002BE5
:101560000ED07B681B6E9847F860FB68002B02D199
:101570006FF0020306E07B68FA681A63002301E05B
:101580006FF0010318461037BD4680BD80B582B0AC
:1015900000AF78607B68002B02D16FF001031AE086
:1015A0007B6801221A707B689B6C002B08D07B68DB
:1015B0009B6C012098477B689B6E002B09D002E052
:1015C0006FF0010307E07B689B6E052098470023BE
:1015D00001E06FF0010318460837BD4680BD80B5B5
:1015E00082B000AF78607B68002B02D16FF00103FE
:1015F0001AE07B6800221A707B689B6C002B08D075
:101600007B689B6C002098477B689B6E002B09D001
:1016100002E06FF0010307E07B689B6E05209847AE
:10162000002301E06FF0010318460837BD4680BD76
:1016300080B582B000AF78607B68002B02D16FF07C
:1016400001031EE07B6801225A707B685B6D002BF2
:1016500008D07B685B6D98470346002B05D06FF080
:1016600003030EE06FF001030BE07B689B6E002B21
:1016700005D07B689B6E05209847002301E06FF042
:10168000010318460837BD4680BD80B582B000AF63
:1016900078607B68002B02D16FF001031EE07B684D
:1016A00000225A707B689B6D002B08D07B689B6D75
:1016B00098470346002B05D06FF004030EE06FF04F
:1016C00001030BE07B689B6E002B05D07B689B6E53
:1016D00005209847002301E06FF001031846083702
:1016E000BD4680BD80B582B000AF78600B46FB7010
:1016F0007B68002B02D16FF0010324E0FB78012B03
:1017000005D0FB78022B02D06FF002031BE07B6850
:10171000FA789A707B68DB6C002B09D07B68DB6CF5
:10172000FA78104698477B689B6E002B09D002E040
:101730006FF0010307E07B689B6E0520984700234C
:1017400001E06FF0010318460837BD4680BD80B444
:1017500083B000AF786087ED000A7B68002B02D170
:101760006FF0010316E0D7ED007AF5EEC07AF1EEE6
:1017700010FA02D56FF002030CE0D7ED007AFCEE10
:10178000E77A17EE903A9AB27B685A817B68012219
:101790009A73002318460C37BD465DF8047B7047EA
:1017A00080B483B000AF786087ED000A7B68002BBF
:1017B00002D16FF0010311E0D7ED007AF5EEC07AA7
:1017C000F1EE10FA02D86FF0020307E07B683A6886
:1017D000DA617B68012283F82C20002318460C373D
:1017E000BD465DF8047B704780B483B000AF78607D
:1017F0000B467B807B68002B02D16FF001030CE06D
:101800007B88002B02D16FF0020306E07A887B68A8
:101810005A617B6801221A76002318460C37BD46B0
:101820005DF8047B7047000080B483B000AF78603F
:1018300087ED000A7B68002B02D16FF0010316E0F0
:10184000D7ED007AF5EEC07AF1EE10FA02D86FF01B
:1018500002030CE0DFED096A97ED007AC6EE877AA5
:10186000FCEEE77A17EE902A7B681A600023184690
:101870000C37BD465DF8047B704700BF0000B443E1
:1018800080B485B000AFF860B9601346FB80FB6898
:10189000002B02D16FF0010306E0FB88BA6803FB5E
:1018A00002F2FB681A60002318461437BD465DF843
:1018B000047B704780B584B000AF786087ED000A84
:1018C0007B68002B02D16FF001035AE07B68DB6D6F
:1018D000002B02D16FF0010353E07B68DB6D98476A
:1018E00002467B685A637B685B6B002B0AD0D7ED9E
:1018F000007AF5EEC07AF1EE10FA03D47B681B692A
:10190000002B02D16FF002033BE07B681B6907EEFE
:10191000903AB8EE677AD7ED007A27EE277ADFEDB6
:101920001B6AC7EE267AC7ED037AD7ED037AF5EE88
:10193000C07AF1EE10FA1CDD7B681B6B07EE903A63
:10194000F8EE676A7B685B6B07EE903AF8EE677AB1
:10195000B7EE007A37EE877AD7ED037A27EE277A4B
:10196000C6EE877AFCEEE77A17EE902A7B689A63D8
:1019700002E07B6800229A637B68012283F83C20A6
:10198000002318461037BD4680BD00BF00007042DE
:1019900080B584B000AF78607B68002B02D16FF017
:1019A00001038AE00023FB737B6893F82C30002B43
:1019B00017D07B6803F120027B68D3ED077AB0EE85
:1019C000670A1046FFF730FF0346FB7397F90F30A5
:1019D000002B02D097F90F306FE07B68002283F86C
:1019E0002C207B681B7E002B16D07B6803F1100037
:1019F0007B68196A7B685B699BB21A46FFF740FFF8
:101A00000346FB7397F90F30002B02D097F90F3084
:101A100053E07B6800221A767B689B7B002B4BD0BF
:101A20007B685B8907EE903AF8EE677AB0EE670A5A
:101A30007868FFF73FFF0346BB7397F90E30002B22
:101A400008D040F21A221F491F4802F0C9F897F93E
:101A50000E3032E07B689B6B4FF64B72934208D995
:101A60004FF408721749194802F0BAF86FF00203F0
:101A700023E07B685B6E002B12D07B685B6E7A681C
:101A8000926B1146786898470346002B11D040F2BC
:101A900027220C490E4802F0A3F84FF0FF330CE068
:101AA00040F22B2207490B4802F09AF86FF001032D
:101AB00003E07B6800229A73002318461037BD4666
:101AC00080BD00BF0CA5010828A5010870A501086C
:101AD000A8A50108E4A5010880B483B000AF786030
:101AE0007B68114A5A647B68104A9A647B68104A82
:101AF000DA647B680F4A1A657B680F4A5A657B680F
:101B00000E4A9A657B680E4A5A667B680D4ADA650A
:101B10007B680D4A1A667B680C4A9A6600BF0C37D0
:101B2000BD465DF8047B7047511B0008691B000827
:101B3000951B0008C51B0008DD1B0008091C0008D8
:101B4000351C0008691C0008811C00088F1C000857
:101B500080B483B000AF7860002318460C37BD46D0
:101B60005DF8047B7047000080B582B000AF03468B
:101B7000FB71FB79002B0CBF01230023DBB21A465B
:101B80008021034808F0A6FC00BF0837BD4680BD91
:101B90000008024080B582B000AF0346FB71FB79BC
:101BA000012B14BF01230023DBB21A464FF400714E
:101BB000034808F08FFC00BF0837BD4680BD00BF5A
:101BC0000008024080B483B000AF7860002318465C
:101BD0000C37BD465DF8047B7047000080B500AF50
:101BE000002107480AF0D6F80346002B05D0054827
:101BF00001F0F6FF6FF0030300E00023184680BDFC
:101C0000F4090020F4A6010880B500AF00210748C0
:101C10000AF088F90346002B05D0054801F0E0FFE3
:101C20006FF0040300E00023184680BDF409002093
:101C300018A7010880B483B000AF78603960094B01
:101C40001B683A68DA62074A3B68D360054B1B6839
:101C50003A6852085A62002318460C37BD465DF8B0
:101C6000047B7047F409002080B400AF034B5B682D
:101C70001846BD465DF8047B704700BFF40900209C
:101C800080B500AF08F0D0FF0346184680BD80B491
:101C900085B000AF78600023FB6003E000BFFB6805
:101CA0000133FB60FB68462BF8D900BF00BF143737
:101CB000BD465DF8047B704780B584B000AFF86026
:101CC000B9601346FB80FB68002B02D0BB68002B79
:101CD00002D14FF0FF335FE0FB68BA685A63FB68DC
:101CE00000229A60FB680022DA60FB6800221A6119
:101CF000FB6800225A61FB6800221A77FB684FF0EC
:101D000000025A62FB68FA88DA80FB889B009AB26C
:101D1000FB689A80FB684FF00002DA6207F0E6FB8E
:101D20000246FB681A63FB68002283F83820FB68D0
:101D3000002283F86420FB680022DA63FB6800223B
:101D40001A64FB6800225A64FB680022DA65FB68AB
:101D50004FF00002DA66FB6870330921184600F084
:101D6000B5FAFB68D4330921184600F0CFFAFB68B6
:101D7000483314220021184615F062FF0021F8684C
:101D800000F0AEF8FB689B881946F86800F04DF843
:101D9000F86800F01AF8002318461037BD4680BDD9
:101DA00080B483B000AF786039603B689AB27B68DA
:101DB000DA803B689BB29B009AB27B689A8000BF36
:101DC0000C37BD465DF8047B704780B582B000AF2C
:101DD00078607B685B6B3C2118460AF03BFB03464E
:101DE000002B02D06FF0020303E07B6801225A70DF
:101DF000002318460837BD4680BD80B582B000AFCD
:101E000078607B685B6B3C2118460AF0B1FB0346A7
:101E1000002B02D06FF0020303E07B6800225A70AF
:101E2000002318460837BD4680BD80B483B000AF9C
:101E3000786039603B689AB27B689A807B685B6B9C
:101E40001B683A68013ADA627B685B6B3A68013A70
:101E5000DA6000BF0C37BD465DF8047B704780B583
:101E600082B000AF78607B685B6B1B681B6803F017
:101E70001003102B0CBF01230023DBB21A467B6832
:101E80001A77786800F019F87B689B681A467B68B7
:101E90009B881946104600F047F8F0EE407A7B68C0
:101EA000C3ED0B7A7B689A687B681A61786800F0EA
:101EB000A9F800BF0837BD4680BD80B483B000AF2D
:101EC00078607B685B6B1B685B6A1A467B689A600C
:101ED0007B689B6818460C37BD465DF8047B7047ED
:101EE00080B582B000AF786039607868FFF785FF11
:101EF0000346002B02D06FF0030311E07B685B6B9D
:101F00001B683A685A627B6800229A607868FFF71B
:101F10005CFF0346002B02D06FF0020300E00023B9
:101F200018460837BD4680BD80B483B000AF7860E6
:101F300039603B68002B03D07A683B689A4202D92B
:101F4000F8EE007A0FE07B6807EE903AF8EE676AE9
:101F50003B6807EE903AB8EE677AC6EE877A9FED57
:101F6000057A67EE877AB0EE670A0C37BD465DF8F2
:101F7000047B70470000B44380B584B000AF786044
:101F80007B685B6B1B685A6A7B68DA607B68DB681E
:101F90001946194801F024FE7B6801229A617B688A
:101FA0005B695A1C7B685A617B684FF00002DA62F9
:101FB0007B6800229A6000217868FFF791FF07F0A4
:101FC00095FAF860FB689AB20C4B1B689BB2D31A67
:101FD0007B810A4AFB6813607B8907EE903AB8EE72
:101FE000677ADFED076AC6EE877A7B68C3ED0A7A07
:101FF00000BF1037BD4680BD38A701088002002011
:1020000000606A4780B584B000AF78607B68DB8889
:10201000002B53D07B685A6C7B681B6E9A4204D1AC
:102020007B6893F86430002B4AD07B685A6C7B68DD
:102030001A667B68002283F864207B685B6C07EE7D
:10204000903AF8EE677A7B68C3ED337A7B68703339
:10205000184600F07DF87B68D3F8C8207B68C3F889
:1020600030217B68D433184600F0D0F87B68D3F871
:102070002C31FB60D7ED037AF5EE407AF1EE10FAE1
:1020800020D07B6893ED1A7A7B68DB8807EE903A64
:10209000F8EE677AC7EE276A97ED037AC6EE877A7D
:1020A0007B68C3ED1B7A7B68D3ED1B7A9FED077AC3
:1020B00067EE877A7B68C3ED097A04E000BF02E02F
:1020C00000BF00E000BF1037BD4680BD0000704279
:1020D00080B483B000AF786039607B6893F83830A3
:1020E000002B07D17B683A68DA637B68012283F8AA
:1020F000382026E07B683A681A647B681A6C7B6833
:10210000DB6B9A4207D97B681A6C7B68DB6BD21A4F
:102110007B685A640DE07B68DA6B7B681B6C9A42C3
:1021200007D97B681A6C7B68DB6BD31A5A1E7B68F5
:102130005A647B681A6C7B68DA637B68012283F8D7
:10214000642000BF0C37BD465DF8047B704700007B
:1021500080B582B000AF78607B68002B01D101238D
:102160004CE07B6893F85430002B0CD07B6893F8DC
:10217000543003F00103DBB2002B04D07B6893F8EA
:102180005430142B01D9022338E07B6893F8603077
:102190005A1CD1B27A6882F8601018467B68DA6DF2
:1021A000796883000B441A6079687B6893F854302F
:1021B0009B001A46134815F0CDFF7B6893F8543006
:1021C0001946114B04220F4814F0CFFA7B6893F89C
:1021D00060207B6893F854309A4203D37B680022D6
:1021E00083F860207B6893F85430013B5B08054A14
:1021F0009B0013441A687B689A65002318460837C9
:10220000BD4680BD840200205323000880B483B003
:1022100000AF78607B68002B01D1012350E07B6820
:1022200093F85430002B04D07B6893F85430142B6F
:1022300001D9022344E07B685B6E07EE903AB8EE6A
:10224000677A7B6893F860307A689B001344D3ED1B
:10225000007A37EE677A7B68D3ED177A77EE277AC4
:10226000FCEEE77A17EE902A7B685A667B6893F853
:1022700060305A1CD1B27A6882F8601018467B68C8
:10228000DA6D796883000B441A607B6893F86020EC
:102290007B6893F854309A4203D37B68002283F81A
:1022A00060207B685B6E7A6892F85420B3FBF2F38F
:1022B00007EE903AF8EE677A7B68C3ED167A002352
:1022C00018460C37BD465DF8047B704780B582B078
:1022D00000AF78600B46FB707B684FF000029A6598
:1022E0007B684FF00002DA657B68002283F860208B
:1022F0007B68FA7883F854207B68542200211846C2
:1023000015F09EFC00BF0837BD4680BD80B582B089
:1023100000AF78600B46FB707B684FF000029A6557
:102320007B684FF00002DA657B68002283F860204A
:102330007B6800225A667B68FA7883F854207B68B1
:1023400054220021184615F07BFC00BF0837BD461B
:1023500080BD80B483B000AF786039607B681A6854
:102360003B681B68D31A18460C37BD465DF8047BE2
:102370007047000080B584B000AF0346FB80FB8847
:10238000B3F5004F0ED1134BD3F88031FB601248E8
:10239000FFF7F2FD0F4B012283F8EC22F9680F489A
:1023A00001F01EFCFB88B3F5806F0BD1094B0122B5
:1023B00083F8EA22074BD3F88031BB60B96808483C
:1023C00001F00EFCFB8818460EF0FEFC00BF103733
:1023D000BD4680BDD8020020500400204CA7010853
:1023E00068A7010880B584B000AF78607B68094AAF
:1023F00093420BD17B681B7F022B07D1054B1B68D7
:102400005B6AFB60F9680448FFF762FE00BF1037A3
:10241000BD4680BD3C0A00205004002080B582B03B
:1024200000AF78607B68044A934201D104F072FCEB
:1024300000BF0837BD4680BD5C0B002080B584B06E
:1024400000AF78600B467B807B68A24A934240F0E5
:1024500037817B88002B00F033819F4801F0C0FB5F
:102460000023FB730BE0FB7B9C4A134493F8F63488
:1024700019469B4801F0B4FBFB7B0133FB73FB7BEC
:102480009BB27A889A42EED8964801F0A9FB934B0A
:1024900093F8F634FB724FF6FF73BB81FB7A643B13
:1024A0000F2B00F2F98001A252F823F04525000815
:1024B000ED240008992600089926000899260008AE
:1024C00099260008992600089926000899260008F0
:1024D0009926000899260008992600088B250008EF
:1024E000992600088B2500080B2500087B4B93F8E4
:1024F000F734302B04D1794B002283F8C422D2E088
:10250000764B012283F8C422CDE0744B93F8F73464
:10251000302B0BD1714B002283F8C522724801F099
:102520005FFB6E4B002283F82C24BCE06B4B012236
:1025300083F8C5226D4801F053FB684B012283F8F4
:102540002C24B0E0654B93F8F734752B0BD1634B1B
:10255000022283F8C622664801F042FB5F4B00224C
:1025600083F82D249CE05D4B93F8F734642B40F006
:1025700097805A4B012283F8C6225E4801F030FB57
:10258000564B012283F82D248AE07B88022B06D14A
:10259000524B93F8F73403F00F03BB813EE07B8886
:1025A000032B13D14D4B93F8F73403F00F039BB279
:1025B0001A46920013445B009AB2484B93F8F834E1
:1025C00003F00F039BB21344BB8127E07B88042BED
:1025D00024D1424B93F8F73403F00F039BB21A4611
:1025E000920013441A4691001A460B4613449B006E
:1025F0009AB23A4B93F8F83403F00F039BB21946A2
:1026000089000B445B009BB213449AB2334B93F89E
:10261000F93403F00F039BB21344BB81BB894FF61F
:10262000FF7293423ED0FB7A722B08D1BB8907EE32
:10263000903AF8EE677A294BC3EDB27A26E0BB896F
:1026400007EE903AB8EEE77A244BD3EDB97AB4EEC0
:10265000E77AF1EE10FA12D8BB8907EE903AF8EE5D
:10266000677A1E4BC3EDB77ABB8907EE903AF8EE56
:10267000677A1A4B03F27C43C3ED007A06E0174BEE
:10268000B3F89A3319461C4801F0AAFABB891946D7
:102690001A4801F0A5FA06E0194801F0A1FA02E093
:1026A00000BF00E000BF0B4B1B68DA68094B1B68DA
:1026B00042F02002DA606422124906480BF034FA34
:1026C0007B88194678680EF005FE00BF1037BD46BE
:1026D00080BD00BFEC0B002084A70108D8020020B9
:1026E00090A7010894A7010898A70108A0A70108CE
:1026F000A8A70108B0A70108B8A70108E4A7010826
:10270000F0A70108CE07002080B500AF01F0CEFA97
:10271000134801F065FA08F087FA0346114A13607E
:1027200004F082FA06F07CFD0346002B03D00E482D
:1027300001F056FA02E00D4801F052FA094B4FF44D
:10274000E1321A62074B082283F82420054B01224C
:1027500083F82520034B4E2283F8262000BF80BD3E
:1027600004A80108D802002018A8010830A8010810
:10277000B0B590B002AF894B07F11C041D460FCDD8
:102780000FC495E8070084E80700854B3C461D46CA
:102790000FCD0FC495E8070084E80700814B03F5CF
:1027A00097643D460FCD0FC495E8070084E8070005
:1027B0007D4803F02DFF7C4803F044FF07F11C0324
:1027C0007A49184613F016F879480CF007FC0346CE
:1027D000002B03D1774801F003FA02E0764801F0BC
:1027E000FFF900230193012300934FF40073734A10
:1027F000734974480EF0F6FA6A4BDB881946724842
:102800000EF002F94FF4FA6270497148FFF754FA7A
:102810000346002B03D16F4801F0E2F902E06E4855
:1028200001F0DEF908F012FB07EE900AF8EE677A85
:1028300017EE900AFDF788FE02460B46FDF726FDCF
:1028400002460B4614461D46644B5B6807EE903A01
:10285000F8EE677A17EE900AFDF776FE4FF0000269
:102860005F4BFDF713FD02460B4620462946FDF758
:10287000EDFF02460B4610461946FEF7B5F9034632
:10288000484AC2F8E031554809F052F9002153484E
:1028900009F012FC434B534AC3F8B422414BD3F81E
:1028A000B4321846FFF718F93E4BD3F8B432184645
:1028B000FEF72DFE0346002B03D14B4801F090F9A3
:1028C00002E04A4801F08CF9364BD3F8B4321021BB
:1028D0001846FEF789FF334BD3F8B4329FED440A14
:1028E0001846FEF734FF2F4BD3F8B4329FED410A60
:1028F0001846FEF755FF02F045FD3F493F4802F0FC
:102900005FFE3F493D4802F07BFE264B93F8C732FD
:1029100019463C4801F064F9384802F0EFFD3A49A5
:10292000364802F08BFE1F4B012283F8C4221D4B58
:10293000364AC3F8E4221B4B4FF00002C3F8DC22F6
:10294000184B4FF00002C3F8E022164B304AC3F890
:10295000D022144B2F4AC3F8D4222F492F4804F019
:102960001AF84FF4FA612D4803F0E4FF0D4B2C4A9E
:10297000C3F8B8220B4BD3F8B8321846FEF788FCE0
:10298000084BD3F8B8321846FEF732FB0346002B4B
:102990004AD1244801F024F949E000BF5CA90108AC
:1029A00078A90108D802002090070020E00200204A
:1029B0000403002048A801086CA80108000C02408C
:1029C000F8020020A40B0020E6020020840A002068
:1029D000500400208CA80108A4A801083C0A00208B
:1029E0000000F03FF40D0020BCA80108D4A80108A5
:1029F000000000006666663F200000209805002069
:102A000038000020ECA801084000002000003443FA
:102A1000000096430000A040B56C0008C8050020E7
:102A2000BC0D002028A90108534801F0D9F802F094
:102A3000EDFB524BD3F8B832514ADA605149524853
:102A400002F0BEFD5149504802F0DAFD4B4B93F8BD
:102A50002F3319464E4801F0C3F84B4802F04EFDA3
:102A60004C49494802F0EAFD444B012283F82C23EB
:102A7000424B494AC3F84C23404B4FF00002C3F885
:102A800044233E4B4FF00002C3F848233B4B434ADC
:102A9000C3F83823394B424AC3F83C2341494248E2
:102AA00003F079FF42F210713F4803F043FF334BCC
:102AB000012283F87424314B03F27C434FF000026F
:102AC0001A602E4B03F590634FF000021A602B4BF7
:102AD00003F284434FF000021A60284B002283F86F
:102AE0007524264B0022A3F87824244B03F5916328
:102AF0002E4A1A60214B03F28C432D4A1A601F4B59
:102B000003F592632A4A1A601C4B03F294434FF078
:102B100000021A60194B03F593634FF000021A602C
:102B2000164B03F2B4434FF000021A60134B01221C
:102B300083F87624114B03F29C434FF000021A6095
:102B40000E4B03F594634FF000021A600B4B03F237
:102B5000A4434FF000021A60084B03F2AC434FF05D
:102B60007E521A60054B03F595634FF000021A6020
:102B700000BF3837BD46B0BD44A90108D8020020C7
:102B80000000E0400800002000060020380000207F
:102B9000ECA80108400000200000344300009643E8
:102BA0000000A040B56C000830060020CDCC4C3DA4
:102BB0000AD7233C80B592B000AF0023A7F8463077
:102BC00000F04DBC4FF0FF33FB6307F13C02B7F858
:102BD00046301146184606F051FB0346002B07D03D
:102BE000B7F846301946BE4800F0FAFF00F032BC94
:102BF000B7F84630322B00F22A8401A252F823F0B3
:102C0000CD2C00084F340008E92C0008092D0008DD
:102C10008D2D0008B72D00084F3400084F340008F0
:102C20004F340008D72D0008652E0008992E0008A3
:102C3000C12E0008152F0008352F00084F3400085A
:102C4000592F0008A12F0008E92F00083130000893
:102C50004F340008AD300008F53000083D31000861
:102C600085310008173200082F3200084F34000861
:102C70004F3400084F3400084F3400084F34000828
:102C8000AB3200084F3400084F3400084F340008BE
:102C9000113300084F3400084F3400084F34000847
:102CA000793300084F3400084F3400084F340008CF
:102CB000DF330008F33300084F3400084F340008B6
:102CC0004F3400081F34000833340008FB6B002B1E
:102CD00040F0BF8306F06CFB0346002B00F0B98385
:102CE000804800F07DFFB4E3FB6BB3F5803F05D374
:102CF0007D4B4FF4FA62A3F87E21ABE3FB6B9AB2F3
:102D0000794BA3F87E21A5E34FF00003BB6307F1E5
:102D10003802B7F846301146184606F0C9FA03469D
:102D2000002B2CD1D7ED0E7AF5EEC07AF1EE10FA29
:102D3000CCBF01230023DBB283F00103DBB2002B05
:102D400010D1D7ED0E7A9FED697AF4EEC77AF1EEE5
:102D500010FA94BF01230023DBB283F00103DBB23E
:102D6000002B01D0624BBB635F4BD3F8B432D7ED7D
:102D70000E7AB0EE670A1846FEF712FD6AE3B7F85E
:102D8000463019465B4800F02BFF63E3FB6BB3F55D
:102D9000803F05D3544BD3F8B432574A5A6259E3B3
:102DA000FA6B514BD3F8B43207EE902AF8EE677AFB
:102DB000C3ED097A4EE3FB6BB3F5803F01D31023DB
:102DC000FB63494BD3F8B432FA6B92B21146184602
:102DD000FEF70AFD3EE34FF000037B6307F1340288
:102DE000B7F846301146184606F062FA0346002B43
:102DF00031D1D7ED0D7A9FED417AF4EEC77AF1EE3D
:102E000010FAACBF01230023DBB283F00103DBB275
:102E1000002B10D1D7ED0D7AB2EE047AF4EEC77A1A
:102E2000F1EE10FA94BF01230023DBB283F001031B
:102E3000DBB2002B01D0324B7B637B6B1846FDF776
:102E400083FB02460B462F4800F0CAFE7B6B264AE6
:102E5000C2F8D432FEE2B7F846301946254800F0F1
:102E6000BFFEF7E2FB6B284A934202D8FB6B632B51
:102E700008D8B7F8463019461E4800F0B1FE4FF4A6
:102E8000FA63FB63FB6B1946204800F0A9FEFB6B5D
:102E9000154AC2F80033DDE2FB6B022B0AD0FB6B54
:102EA000012B07D0B7F846301946194800F098FEB4
:102EB0000223FB63FB6BDAB20B4B83F8C722C9E238
:102EC000FB6B42F21072934204D8FB6B064AC2F8C5
:102ED000DC34BFE2044B4FF47A72C3F8DC24B9E26D
:102EE00094A90108B8A90108D80200200000B44341
:102EF0006666663FD4A9010800009643CDCCCC3D60
:102F00000000A040FCA9010800E1F50518AA01088D
:102F100030AA0108FB6B42F21072934204D8FB6B9B
:102F2000B44AC2F8E03495E2B24B4FF4FA52C3F817
:102F3000E0248FE2FB6B632B09D9FB6B40F2DC5280
:102F4000934204D8FB6BAB4AC2F8EC3482E2A94B43
:102F50006422C3F8EC247DE24FF000033B6307F1E9
:102F60003002B7F846301146184606F0A1F903467C
:102F7000002B0ED1D7ED0C7AF5EEC07AF1EE10FAF7
:102F800001D59D4B3B633A6B9A4B03F244431A6065
:102F900060E2B7F846301946984800F021FE59E241
:102FA0004FF00003FB6207F12C02B7F846301146E0
:102FB000184606F07DF90346002B0ED1D7ED0B7AAB
:102FC000F5EEC07AF1EE10FA01D58D4BFB62FA6A8C
:102FD000884B03F589631A603CE2B7F8463019461E
:102FE000864800F0FDFD35E24FF00003BB6207F1BB
:102FF0002802B7F846301146184606F059F903463C
:10300000002B0ED1D7ED0A7AF5EEC07AF1EE10FA68
:1030100001D57B4BBB62BA6A764B03F244431A601C
:1030200018E2B7F846301946744800F0D9FD11E2AD
:103030004FF000037B6207F12402B7F846301146D7
:10304000184606F035F90346002B28D1D7ED097A4A
:10305000F5EEC07AF1EE10FAACBF01230023DBB22B
:1030600083F00103DBB2002B10D1D7ED097A9FED7D
:10307000657AF4EEC77AF1EE10FA94BF01230023CB
:10308000DBB283F00103DBB2002B02D04FF07E53A2
:103090007B627A6A574B03F244431A60DAE1B7F86D
:1030A00046301946554800F09BFDD3E14FF0000330
:1030B0003B6207F12002B7F846301146184606F089
:1030C000F7F80346002B0ED1D7ED087AF5EEC07A5B
:1030D000F1EE10FA01D5484B3B623A6A454B03F5D5
:1030E00091631A60B6E1B7F846301946434800F0DC
:1030F00077FDAFE14FF00003FB6107F11C02B7F869
:1031000046301146184606F0D3F80346002B0ED180
:10311000D7ED077AF5EEC07AF1EE10FA01D5384B0B
:10312000FB61FA69334B03F28C431A6092E1B7F802
:1031300046301946314800F053FD8BE14FF0000353
:10314000BB6107F11802B7F846301146184606F081
:10315000AFF80346002B0ED1D7ED067AF5EEC07A14
:10316000F1EE10FA01D5264BBB61BA69214B03F58C
:1031700091631A606EE1B7F8463019461F4800F0B7
:103180002FFD67E14FF000037B6107F11402B7F8F0
:1031900046301146184606F08BF80346002B33D113
:1031A000D7ED057AF5EEC07AF1EE10FAACBF012347
:1031B0000023DBB283F00103DBB2002B10D1D7ED8B
:1031C000057A9FED107AF4EEC77AF1EE10FA94BF0B
:1031D00001230023DBB283F00103DBB2002B02D01A
:1031E0004FF07E537B617A69024B03F591631A605D
:1031F00030E100BFD8020020CDCC4C3DD4A901085D
:103200000AD7233C0000C842B7F84630194699480F
:1032100000F0E6FC1EE1FB6BB3F5803F02D34FF4F8
:10322000FB73FB63FB6B9AB2934BDA8012E10023D2
:1032300087F8453031E097F845309AB2B7F8463014
:1032400013449BB207F13C021146184606F016F8EB
:10325000FB6BFF2B14D9894A07F10C0392E803009A
:10326000186004331980844B083307F10C0292E88C
:1032700003001860043319801F23A7F8463010E0BC
:10328000FA6B97F84530D1B27B4A13440A461A725A
:1032900097F84530013387F8453097F84530052BCE
:1032A000C9D91F23A7F84630D4E0002387F844305B
:1032B00026E097F844309AB2B7F8463013449BB2F0
:1032C00007F13C021146184605F0D8FFFB6BFF2BB7
:1032D00009D96B4BBB60BB68674AC2F80E30232329
:1032E000A7F8463010E0FA6B97F84430D1B2624A42
:1032F00013440A469A7397F84430013387F84430F0
:1033000097F84430032BD4D92323A7F84630A1E003
:10331000002387F8433027E097F843309AB2B7F894
:10332000463013449BB207F13C021146184605F0A3
:10333000A5FFFB6BFF2B0AD96FF07F437B607B6897
:103340004D4AC2F812302723A7F8463010E0FA6B36
:1033500097F84330D1B2484A13440A469A7497F812
:103360004330013387F8433097F84330032BD3D9E8
:103370002723A7F846306DE0002387F8423026E087
:1033800097F842309AB2B7F8463013449BB207F12F
:103390003C021146184605F071FFFB6BFF2B09D963
:1033A000384B3B603B68344AC2F816302B23A7F8F1
:1033B000463010E0FA6B97F84230D1B22E4A1344EF
:1033C0000A469A7597F84230013387F8423097F8E9
:1033D0004230032BD4D92B23A7F846303AE0FB6BBD
:1033E000FF2B01D90023FB63FB6BDAB2224BDA77A8
:1033F00030E007F13C0319462D2005F03FFFFB6B41
:10340000002B07D0FB6BB3F1FF3F03D0FB6B1A4AD5
:1034100013621FE0184B4FF4E1321A621AE0FB6BA3
:10342000FF2B01D90023FB63FB6BDAB2124BDA7777
:1034300010E0FB6B002B04D0FB6B012B01D00123B0
:10344000FB63FB6BDAB20C4B83F8F52402E000BFA0
:1034500000E000BFB7F846300133A7F84630B7F8B0
:103460004630322B7FF6AEAB00BF00BF4837BD46BB
:1034700080BD00BFD4A90108D802002058AA0108C5
:10348000C0A8000EC0A8000180B400AFBFF34F8FEA
:1034900000BF064BDB6803F4E0620449044B1343AE
:1034A000CB60BFF34F8F00BF00BFFDE700ED00E032
:1034B0000400FA0580B500AFFFF726F9FFF77AFBA5
:1034C000FFF756F9642200210A4814F0B9FB0A4BB1
:1034D000002283F85A25094B1B68DA68074B1B68E2
:1034E00042F02002DA606422024904480AF01CFB20
:1034F00000BF80BDCE070020D8020020EC0B0020CA
:1035000080B582B000AF5C48FEF7A9FC5B4B93F836
:10351000C732012B03D1594BD3ED697A06E0574BE3
:10352000D3ED697A9FED567A77EE677AC7ED017A27
:10353000524B03F284437A681A60524803F03AFA15
:103540004E4B93F8C232002B24D14C4B03F59563BC
:10355000D3ED007A9FED4C7A27EE877ADFED4B6A48
:10356000C7EE267A454BC3EDB27A444A7B68C2F86F
:10357000D832D7ED017AFCEEE77A17EE903A9BB29B
:103580003E4AD2EDB27A0122B0EE670A19464048AF
:1035900001F0CAFF394B93F8C332002B13D0374BDD
:1035A00093F8C032052B0ED1344A7B68C2F8E4325E
:1035B000324BD3F8E4321846FCF7C6FF02460B46FE
:1035C000344800F00DFB2D4B93F8C032032B15D17E
:1035D0002A4BD3F88031002B10DD284B93F8C732EB
:1035E000012B04D100212448FEF77AFC06E0234B8E
:1035F000B3F87C3119462048FEF772FC1F4B93F854
:10360000E832002B05D11D4BD3F8B4321846FEF733
:10361000BFF91F4802F032F800F044FA05F0B6FE98
:103620000346002B02D11C4800F0DAFA05F05EFFD9
:1036300002461A4B1B68D31A41F28732934213D9C0
:1036400005F054FF0346154A13600221144806F0A2
:103650005AFF144B1B78012B03D1124B02221A7014
:1036600002E0104B01221A7000F02CFA00F01CF856
:1036700000BF0837BD4680BD50040020D80200209E
:103680000000B4434C070020000096430000C842ED
:103690009805002060AA010870AA010838080020D7
:1036A00000000240000000202DE9F04FA7B014AF49
:1036B00005F01CFF0246B24B1B68D31A41F2873259
:1036C000934240F2E38105F011FF0346AC4A1360D8
:1036D000AC4800F085FAAC4BD3F89C311846FCF7A7
:1036E00033FF04460D46A84BD3F8A0311846FCF72B
:1036F0002BFF02460B46CDE9002322462B46A3486A
:1037000000F06EFA07F090FA03461946A04800F060
:1037100067FA9D4BD3F880619B4BD3F888313B64AB
:10372000994BD3F88C11B963974B93F89431DBB272
:103730003B63954BD3F8E4311846FCF705FF82460E
:103740008B46914BD3F89C311846FCF7FDFEC7E938
:103750000A018D4BD3F8A0311846FCF7F5FEC7E9F6
:103760000801894BB3F87E31BB61874BB3F87C31DC
:103770003B61854BD3F8A4311846FCF7E5FE804643
:103780008946814BD3F898311846FCF7DDFE044694
:103790000D467D4BD3F8E0311846FCF7D5FE7A4B49
:1037A000D3F8BC311093CDE90E01CDE90C45CDE93C
:1037B0000A893C690994BC69089497ED087B8DEDF2
:1037C000067B97ED0A7B8DED047BCDE902AB386B70
:1037D0000090BB6B3A6C31466E4800F001FA6A4BC0
:1037E00093F876341E46684B03F27C431B681846F8
:1037F000FCF7AAFEC7E91001634B03F284431B6880
:103800001846FCF7A1FEC7E90E015F4B03F2944393
:103810001B681846FCF798FEC7E90C015A4B03F5E4
:1038200091631B681846FCF78FFEC7E90A01564BE7
:1038300003F28C431B681846FCF786FEC7E90801B3
:10384000514B03F592631B681846FCF77DFEC7E9F0
:1038500006014D4B03F29C431B681846FCF774FEAF
:10386000C7E90401484B03F594631B681846FCF74D
:103870006BFE82468B46444B03F2A4431B681846FA
:10388000FCF762FE804689463F4B03F2AC431B685F
:103890001846FCF759FE04460D463B4B03F595636D
:1038A0001B681846FCF750FE02460B46CDE9122372
:1038B000CDE91045CDE90E89CDE90CAB97ED047B40
:1038C0008DED0A7B97ED067B8DED087B97ED087BF0
:1038D0008DED067B97ED0A7B8DED047B97ED0C7BE0
:1038E0008DED027B97ED0E7B8DED007BD7E91023EC
:1038F0003146294800F074F9234BD3F8B4321B78D1
:103900009846214BD3F8B4325B7899461E4BD3F8D6
:10391000B4329B789A461C4BD3F8B4325B891E466E
:10392000194BD3F8B4329B893B64174BD3F8B432AC
:103930005C69154BD3F8B4321D69134BD3F8B4321C
:10394000DB691846FCF700FE02460B460E49D1F82B
:10395000B412096A0691CDE90423039502943B6CE5
:103960000193009653464A4641460C4800F038F908
:10397000054B93F8C0323B64034B93F8C2320FE01F
:103980003C0800208CAA0108D802002090AA010857
:10399000ACAA0108BCAA010864AB010804AC010888
:1039A000BB633D4B93F8C4323B633B4B93F8C5324A
:1039B000BB62394B93F8C6323B62374BD3F8C832FF
:1039C0001846FCF7C1FD82468B46334BD3F8D43200
:1039D0001846FCF7B9FD05460E462F4BD3F8D832F2
:1039E0001846FCF7B1FDC7E906012B4BD3F8DC32D2
:1039F0001846FCF7A9FD80468946274BD3F8E432E8
:103A00001846FCF7A1FD244B93F8ED323B61224BA5
:103A100093F8EB32FB60204B93F8EC32BB601E4B0B
:103A200093F8E9327B601C4B93F8EA321C461A4B40
:103A300093F8ED321A46184B93F8EE321293119226
:103A400010947C680F94BC680E94FC680D943C69DB
:103A50000C94CDE90A01CDE9088997ED067B8DED3F
:103A6000067BCDE90456CDE902AB386A0190B86A0D
:103A700000903B6BBA6B396C084800F0B1F8064B0C
:103A8000D3F800331946064800F0AAF800BF4C37B7
:103A9000BD46BDE8F08F00BFD802002070AC010821
:103AA00038AD010880B500AF054B1B79002B04D061
:103AB000034B00221A71FFF7E7FC00BF80BD00BF77
:103AC000D802002080B500AF434B93F8F424424B5A
:103AD00093F8C5329A421DD03F4B93F8C5223E4B16
:103AE00083F8F4243C4B93F8C532002B08D03A4BB2
:103AF000D3F8E0349BB21946384802F0AFFD09E034
:103B0000354B012283F8F02405F0F0FC0346324ADD
:103B1000C2F8E834304B93F8F034002B1DD005F098
:103B2000E5FC02462C4BD3F8E834D21A2A4BD3F8E2
:103B3000EC349A4211D3284B002283F8F02405F08C
:103B4000D5FC0346244AC2F8E834234BD3F8DC34CE
:103B50009BB21946214802F081FD1F4BDB7F002BF1
:103B60000AD00CF0A1FE1C4B0022DA771A4BDB7F47
:103B700019462C2005F0BEFB174B93F82830002B7C
:103B80000CD00CF0A5FE144B002283F82820124B19
:103B900093F828301946312005F0ACFB0E4B93F812
:103BA000E434002B15D00C4B93F8C532002B08D011
:103BB000094BD3F8E0349BB21946084802F04EFD99
:103BC00007E0054BD3F8DC349BB21946034802F0FA
:103BD00045FD00BF80BD00BFD80200209007002037
:103BE0000FB480B582B000AF134B1B78002B02D10D
:103BF0004FF0FF3319E007F114033B603A6839696D
:103C00000E4813F065FF78607B68002B0CDD7B6845
:103C10009AB27B6809490A4809F0E8FD7B681A46B0
:103C20000021064814F00CF87B6818460837BD469A
:103C3000BDE8804004B070474009002040080020E3
:103C4000EC0B00200EB480B585B000AF0346FB71CD
:103C5000134B1B78002B1CD0FB79002B1AD007F1DB
:103C60002003BB60BA68F9690E4813F031FFF860B1
:103C7000FB68002B0EDDFB689AB2FB6809490A4815
:103C800009F0B4FDFB681A460021064813F0D8FF7E
:103C900000E000BF1437BD46BDE8804003B0704768
:103CA0004009002040080020EC0B002080B400AF49
:103CB000034B01221A7000BFBD465DF8047B7047BC
:103CC0004009002080B400AF034B00221A7000BFEF
:103CD000BD465DF8047B70474009002080B400AF0A
:103CE000034B1B781846BD465DF8047B704700BF48
:103CF0004009002080B500AF05F092FB00F036F8D7
:103D000000F026FC00F0DEFB00F0B2FB00F004F94E
:103D100000F0CCF900F05EFB00F0C8F800F07EFB8C
:103D200000F034FA00F086FA00F08AF800F004FBA4
:103D3000FFF7C0FB05F0DAFB02460A4B1B68D31AFB
:103D4000B3F57A7F08D305F0D1FB0346054A13602B
:103D50000221054806F0D7FBFFF7D2FB0CF0DEFE90
:103D6000E8E700BFB40D00200000024080B594B029
:103D700000AF07F1200330220021184613F060FF46
:103D800007F10C0300221A605A609A60DA601A6127
:103D90000023BB60284B1B6C274A43F080531364FD
:103DA000254B1B6C03F08053BB60BB6800237B601A
:103DB000224B1B68214A43F4804313601F4B1B684E
:103DC00003F480437B607B6801233B624FF48033C4
:103DD0007B620223BB634FF48003FB6304233B64D9
:103DE000A8237B640223BB640423FB6407F1200344
:103DF000184606F0BBFB0346002B01D000F0E2FCA6
:103E00000F23FB6002233B6100237B614FF4A0532F
:103E1000BB614FF48053FB6107F10C030521184689
:103E200006F01CFE0346002B01D000F0CBFC00BFC7
:103E30005037BD4680BD00BF0038024000700040D2
:103E400080B500AF174B184A1A60164B4FF48272B8
:103E50005A60144B00229A60124B0022DA60114B18
:103E600000221A610F4B00225A610E4B4FF4007270
:103E70009A610C4B0022DA610A4B00221A62094B4C
:103E800000225A62074B00229A62064B0A22DA622B
:103E9000044807F003F80346002B01D000F092FC21
:103EA00000BF80BD440900200030014080B500AF54
:103EB000174B184A1A60164B4FF482725A60144B13
:103EC00000229A60124B0022DA60114B00221A6124
:103ED0000F4B00225A610E4B4FF400729A610C4B4B
:103EE0000022DA610A4B00221A62094B00225A6250
:103EF000074B00229A62064B0A22DA62044806F057
:103F0000CDFF0346002B01D000F05CFC00BF80BD5C
:103F10009C0900200038004080B596B000AF07F142
:103F2000480300221A605A609A60DA6007F1400381
:103F300000221A605A6007F1240300221A605A60B6
:103F40009A60DA601A615A619A613B1D2022002151
:103F5000184613F075FE534B534A1A60514B182202
:103F60005A60504B00229A604E4B4FF47A72DA60DE
:103F70004C4B00221A614B4B00225A61494B0022E4
:103F80009A61484807F084FD0346002B01D000F0F9
:103F900019FC4FF48053BB6407F1480319464148AC
:103FA00008F0CCFD0346002B01D000F00BFC3D488F
:103FB00007F096FE0346002B01D000F003FC10230F
:103FC0003B6400237B6407F140031946354809F040
:103FD000DBFA0346002B01D000F0F4FB60237B6288
:103FE000304BDB685B08BB620023FB6200233B6352
:103FF00000237B634FF48073BB630023FB6307F1F3
:10400000240300221946274808F0D6FC0346002B5B
:1040100001D000F0D7FB07F1240304221946214800
:1040200008F0CAFC0346002B01D000F0CBFB0023B4
:10403000BB6307F12403082219461A4808F0BCFCA8
:104040000346002B01D000F0BDFB07F124030C2236
:104050001946144808F0B0FC0346002B01D000F0CC
:10406000B1FB00237B600023BB600023FB600023C7
:104070003B6100237B614FF40053BB6100233B6233
:104080003B1D1946074809F0FBFA0346002B01D0F7
:1040900000F098FB034800F065FD00BF5837BD46AF
:1040A00080BD00BFF40900200000014080B58AB047
:1040B00000AF07F1180300221A605A609A60DA60B4
:1040C00007F1100300221A605A603B4600221A6072
:1040D0005A609A60DA602B4B4FF080421A60294B8D
:1040E00053225A60274B00229A60264B264ADA60F8
:1040F000244B00221A61234B80229A61214807F049
:10410000C7FC0346002B01D000F05CFB4FF480534A
:10411000BB6107F1180319461A4808F00FFD034662
:10412000002B01D000F04EFB164807F06BFF034652
:10413000002B01D000F046FB10233B6100237B6184
:1041400007F1100319460F4809F01EFA0346002B29
:1041500001D000F037FB00233B6001237B6000238C
:10416000BB600023FB603B4600221946054808F06F
:1041700086FB0346002B01D000F024FB00BF28374C
:10418000BD4680BD3C0A002040420F0080B58CB087
:1041900000AF07F10C0324220021184613F050FD54
:1041A0003B1D00221A605A60204B214A1A601F4BA7
:1041B00000225A601D4B00229A601C4B4FF6FF7282
:1041C000DA601A4B00221A61184B80229A6103238D
:1041D000FB6000233B6101237B610023BB61002363
:1041E000FB6100233B6201237B620023BB6200234F
:1041F000FB6207F10C0319460C4808F085F80346EA
:10420000002B01D000F0DEFA10237B600023BB609E
:104210003B1D1946054809F0B7F90346002B01D0AC
:1042200000F0D0FA00BF3037BD4680BD840A0020C0
:104230000004004080B58EB000AF07F128030022D3
:104240001A605A609A60DA6007F1200300221A604F
:104250005A603B1D00221A605A609A60DA601A6147
:104260005A619A61324B334A1A60314B00225A60CC
:104270002F4B00229A602E4B42F2CF02DA602C4B79
:1042800000221A612A4B00229A61294807F000FC9B
:104290000346002B01D000F095FA4FF48053BB6227
:1042A00007F128031946224808F048FC0346002B72
:1042B00001D000F087FA1E4807F012FD0346002BDC
:1042C00001D000F07FFA10233B6200237B6207F1EC
:1042D00020031946164809F057F90346002B01D070
:1042E00000F070FA60237B600023BB600023FB605A
:1042F00000237B613B1D002219460D4808F05CFB42
:104300000346002B01D000F05DFA3B1D0422194644
:10431000074808F051FB0346002B01D000F052FA89
:10432000034800F01FFC00BF3837BD4680BD00BF0A
:10433000CC0A00200008004080B588B000AF3B1DCB
:1043400000221A605A609A60DA601A615A619A61B2
:104350001E4B1F4A1A601D4B00225A601B4B002245
:104360009A601A4B4FF6FF72DA60184B00221A61FE
:10437000164B00229A61154807F08AFB0346002B72
:1043800001D000F01FFA114807F0AAFC0346002BE9
:1043900001D000F017FA60237B600023BB6000238C
:1043A000FB6000237B613B1D00221946074808F093
:1043B00003FB0346002B01D000F004FA034800F091
:1043C000D1FB00BF2037BD4680BD00BF140B0020CD
:1043D0000044014080B500AF0E4B0F4A1A600D4BF0
:1043E00053225A600B4B00229A600A4B4FF6FF7221
:1043F000DA60084B00221A61064B80229A61054858
:1044000007F046FB0346002B01D000F0DBF900BFAC
:1044100080BD00BF5C0B00200020004080B500AFD5
:10442000114B124A1A60104B4FF4E1325A600E4B96
:1044300000229A600C4B0022DA600B4B00221A61BA
:10444000094B0C225A61084B00229A61064B00224C
:10445000DA61054809F07AF90346002B01D000F033
:10446000B1F900BF80BD00BFA40B002000100140C7
:1044700080B500AF114B124A1A60104B4FF4E13275
:104480005A600E4B00229A600C4B0022DA600B4BF4
:1044900000221A61094B0C225A61084B00229A61D2
:1044A000064B0022DA61054809F050F90346002B5B
:1044B00001D000F087F900BF80BD00BFEC0B0020E9
:1044C0000044004080B582B000AF00237B601F4BEA
:1044D0001B6B1E4A43F4800313631C4B1B6B03F4DA
:1044E00080037B607B6800233B60184B1B6B174A83
:1044F00043F400131363154B1B6B03F400133B6071
:104500003B6800220021102005F0FBF8102005F088
:1045100014F900220021112005F0F3F8112005F014
:104520000CF9002200213A2005F0EBF83A2005F0C2
:1045300004F900220021462005F0E3F8462005F0AA
:10454000FCF800BF0837BD4680BD00BF0038024000
:1045500080B58CB000AF07F11C0300221A605A60CE
:104560009A60DA601A610023BB61904B1B6B8F4A23
:1045700043F0100313638D4B1B6B03F01003BB61FF
:10458000BB6900237B61894B1B6B884A43F0800326
:104590001363864B1B6B03F080037B617B690023F5
:1045A0003B61824B1B6B814A43F0010313637F4BDA
:1045B0001B6B03F001033B613B690023FB607B4BFA
:1045C0001B6B7A4A43F002031363784B1B6B03F0B7
:1045D0000203FB60FB680023BB60744B1B6B734AD8
:1045E00043F008031363714B1B6B03F00803BB60BC
:1045F000BB6800237B606D4B1B6B6C4A43F004036C
:1046000013636A4B1B6B03F004037B607B6800221F
:104610001021674805F05EFF002248F2020165485C
:1046200005F058FF00224FF40061634805F052FF87
:1046300000224FF48641614805F04CFF00224FF400
:1046400030715F4805F046FF0423FB614FF4881387
:104650003B6200237B6207F11C031946544805F0B6
:1046600089FC1023FB6101233B6200237B62002352
:10467000BB6207F11C0319464D4805F07BFC202363
:10468000FB614FF444133B6200237B6207F11C0380
:104690001946474805F06EFC0223FB6101233B628B
:1046A00000237B620323BB6207F11C0319464148C8
:1046B00005F060FC4FF40063FB6101233B620023C3
:1046C0007B620223BB6207F11C0319463A4805F0DE
:1046D00051FC4FF44073FB6101233B6200237B627A
:1046E0000023BB6207F11C031946344805F042FC65
:1046F0004FF40443FB614FF488133B6200237B6259
:1047000007F11C0319462D4805F034FC4FF4804393
:10471000FB6101233B6200237B620223BB6207F142
:104720001C031946254805F025FC4023FB610123A5
:104730003B6200237B620223BB6207F11C03194624
:104740001F4805F017FC4FF42073FB6101233B6207
:1047500000237B620023BB6207F11C031946184843
:1047600005F008FC4FF40043FB6101233B6200238A
:104770007B620023BB6207F11C0319460D4805F05C
:10478000F9FB00220321172004F0BBFF172004F0DF
:10479000D4FF00220321282004F0B3FF282004F0D6
:1047A000CCFF00BF3037BD4680BD00BF003802409F
:1047B000001002400000024000040240000C0240D1
:1047C0000008024080B400AF72B600BF00BFFDE732
:1047D00080B483B000AF00237B60104B5B6C0F4A4A
:1047E00043F4804353640D4B5B6C03F480437B6064
:1047F0007B6800233B60094B1B6C084A43F08053E5
:104800001364064B1B6C03F080533B603B6800BF96
:104810000C37BD465DF8047B704700BF003802408E
:1048200080B58CB000AF786007F11C0300221A60DD
:104830005A609A60DA601A617B681B68324A934258
:104840002CD10023BB61314B5B6C304A43F4805365
:1048500053642E4B5B6C03F48053BB61BB69002334
:104860007B612A4B1B6B294A43F002031363274BDE
:104870001B6B03F002037B617B693823FB6102231E
:104880003B6200237B620323BB620523FB6207F1CB
:104890001C0319461E4805F06DFB31E07B681B6860
:1048A0001C4A93422CD100233B61184B1B6C174AC6
:1048B00043F480431364154B1B6C03F480433B614A
:1048C0003B690023FB60114B1B6B104A43F0020352
:1048D00013630E4B1B6B03F00203FB60FB684FF48A
:1048E0006043FB6102233B6200237B620323BB62C4
:1048F0000523FB6207F11C031946054805F03AFB46
:1049000000BF3037BD4680BD003001400038024056
:10491000000402400038004080B582B000AF7860EB
:104920007B681B68104A93420AD1104B5B6C0F4A9C
:1049300023F48053536438210D4805F0B7FC0FE091
:104940007B681B680B4A93420AD1084B1B6C074AD1
:1049500023F4804313644FF46041054805F0A6FC3E
:1049600000BF0837BD4680BD00300140003802401E
:10497000000402400038004080B58EB000AF78607F
:1049800007F1240300221A605A609A60DA601A6103
:104990007B681B68494A93420ED100233B62484B17
:1049A0005B6C474A43F001035364454B5B6C03F077
:1049B00001033B623B6A7CE07B681B68B3F1804F7C
:1049C00034D10023FB613E4B1B6C3D4A43F0010395
:1049D00013643B4B1B6C03F00103FB61FB69002379
:1049E000BB61374B1B6B364A43F001031363344BF7
:1049F0001B6B03F00103BB61BB6901237B620223D4
:104A0000BB620023FB6200233B6301237B6307F14E
:104A1000240319462B4805F0ADFA002203211C207F
:104A200004F06FFE1C2004F088FE42E07B681B68E7
:104A3000254A93420ED100237B61214B1B6C204AF7
:104A400043F0040313641E4B1B6C03F004037B61EF
:104A50007B692EE07B681B681C4A93420ED10023C1
:104A60003B61174B5B6C164A43F400335364144BA1
:104A70005B6C03F400333B613B691AE07B681B68A5
:104A8000134A934215D10023FB600D4B1B6C0C4A5B
:104A900043F4807313640A4B1B6C03F48073FB6054
:104AA000FB68002202212D2004F02BFE2D2004F0B3
:104AB00044FE00BF3837BD4680BD00BF0000014046
:104AC000003802400000024000080040004401405D
:104AD0000020004080B58AB000AF786007F1140371
:104AE00000221A605A609A60DA601A617B681B685B
:104AF000194A93422BD100233B61184B1B6C174A78
:104B000043F002031364154B1B6C03F002033B617B
:104B10003B690023FB60114B1B6B104A43F0010300
:104B200013630E4B1B6B03F00103FB60FB68C02398
:104B30007B610223BB610023FB6100233B620223F4
:104B40007B6207F114031946054805F013FA00BF0C
:104B50002837BD4680BD00BF000400400038024039
:104B60000000024080B58AB000AF786007F11403FE
:104B700000221A605A609A60DA601A617B681B68CA
:104B8000374A93421FD100233B61364B1B6B354A9A
:104B900043F001031363334B1B6B03F001033B61D1
:104BA0003B694FF480737B610223BB610023FB618F
:104BB00000233B6201237B6207F1140319462A4854
:104BC00005F0D8F948E07B681B68284A93421FD15A
:104BD0000023FB60234B1B6B224A43F00803136343
:104BE000204B1B6B03F00803FB60FB684FF4405342
:104BF0007B610223BB610023FB6100233B62022334
:104C00007B6207F114031946194805F0B3F923E054
:104C10007B681B68174A93421ED10023BB60114B6F
:104C20001B6B104A43F0020313630E4B1B6B03F024
:104C30000203BB60BB684FF480737B610223BB61DE
:104C40000023FB6100233B6203237B6207F1140313
:104C50001946094805F08EF900BF2837BD4680BDCA
:104C600000000140003802400000024000080040FF
:104C7000000C0240004401400004024080B58CB0AA
:104C800000AF786007F11C0300221A605A609A6036
:104C9000DA601A617B681B68974A934240F0928001
:104CA0000023BB61954B5B6C944A43F01003536443
:104CB000924B5B6C03F01003BB61BB6900237B610B
:104CC0008E4B1B6B8D4A43F0010313638B4B1B6BA5
:104CD00003F001037B617B694FF4C063FB61022336
:104CE0003B6200237B620323BB620723FB6207F165
:104CF0001C031946824805F03DF9824B824A1A602E
:104D0000804B4FF000625A607E4B00229A607D4BD0
:104D10000022DA607B4B4FF480621A61794B0022EB
:104D20005A61784B00229A61764B0022DA61754B0A
:104D300000221A62734B00225A62724804F018FD76
:104D40000346002B01D0FFF73DFD7B686D4ADA6317
:104D50006C4A7B6893636D4B6D4A1A606B4B4FF0E6
:104D600000625A60694B40229A60684B0022DA6008
:104D7000664B4FF480621A61644B00225A61634BA8
:104D800000229A61614B0022DA61604B00221A62B4
:104D90005E4B00225A625D4804F0EAFC0346002B99
:104DA00001D0FFF70FFD7B68584A9A63574A7B682A
:104DB000936300220021252004F0A3FC252004F0A9
:104DC000BCFC95E07B681B68524A934240F090809F
:104DD00000233B61494B1B6C484A43F40033136486
:104DE000464B1B6C03F400333B613B690023FB60C3
:104DF000424B1B6B414A43F0010313633F4B1B6B58
:104E000003F00103FB60FB680C23FB6102233B62A0
:104E100000237B620323BB620723FB6207F11C03B1
:104E20001946374805F0A6F83B4B3C4A1A603A4B06
:104E30004FF000625A60384B00229A60364B0022D5
:104E4000DA60354B4FF480621A61334B00225A61AD
:104E5000314B00229A61304B0022DA612E4B002246
:104E60001A622D4B00225A622B4804F081FC034643
:104E7000002B01D0FFF7A6FC7B68274ADA63264A9D
:104E80007B689363264B274A1A60254B4FF00062DC
:104E90005A60234B40229A60214B0022DA60204B5B
:104EA0004FF480621A611E4B00225A611C4B002293
:104EB0009A611B4B0022DA61194B00221A62184BCF
:104EC00000225A62164804F053FC0346002B01D01E
:104ED000FFF778FC7B68124A9A63114A7B689363F8
:104EE00000220221262004F00CFC262004F025FCE0
:104EF00000BF3037BD4680BD001001400038024081
:104F000000000240340C002040640240940C002059
:104F1000B864024000440040F40C00208860024065
:104F2000540D0020A060024080B400AF00BFFDE738
:104F300080B500AF0248FEF753FE00BFFDE700BF9B
:104F400050AD010880B400AF00BFFDE780B400AFF2
:104F500000BFFDE780B400AF00BFFDE780B400AF45
:104F600000BFBD465DF8047B704780B400AF00BF52
:104F7000BD465DF8047B704780B400AF00BFBD46FE
:104F80005DF8047B704780B500AF04F09BFA00BF6A
:104F900080BD000080B500AF024804F081FD00BF75
:104FA00080BD00BFF40C002080B500AF024804F0C3
:104FB00077FD00BF80BD00BF540D002080B500AF5D
:104FC000202005F0BBFA00BF80BD000080B500AF17
:104FD000024807F064FB00BF80BD00BF3C0A002010
:104FE00080B500AF024808F055FE00BF80BD00BF8D
:104FF000A40B002080B500AF024808F04BFE00BFB4
:1050000080BD00BFEC0B002080B500AF4FF4806086
:1050100005F094FA4FF4004005F090FA00BF80BD0F
:1050200080B500AF024807F03AFB00BF80BD00BF6B
:105030005C0B002080B500AF024804F031FD00BFDA
:1050400080BD00BF340C002080B500AF024804F0E2
:1050500027FD00BF80BD00BF940C002080B400AFCE
:1050600001231846BD465DF8047B704780B582B0C9
:1050700000AF7860396013F037F8034616221A60E3
:105080004FF0FF3318460837BD4680BD80B582B06B
:1050900000AF78604FF0FF317868FFF7E7FF00BF9F
:1050A000FDE780B586B000AFF860B9607A60002394
:1050B0007B610AE0AFF300800146BB685A1CBA600E
:1050C000CAB21A707B6901337B617A697B689A4244
:1050D000F0DB7B6818461837BD4680BD80B586B0CA
:1050E00000AFF860B9607A6000237B6109E0BB68BB
:1050F0005A1CBA601B781846AFF300807B690133F5
:105100007B617A697B689A42F1DB7B6818461837C5
:10511000BD4680BD80B483B000AF78604FF0FF33F0
:1051200018460C37BD465DF8047B704780B483B0E9
:1051300000AF786039603B684FF400525A6000233A
:1051400018460C37BD465DF8047B704780B483B0C9
:1051500000AF7860012318460C37BD465DF8047B2C
:10516000704780B485B000AFF860B9607A60002302
:1051700018461437BD465DF8047B704780B586B08D
:1051800000AF7860144A154BD31A7B617B693B6191
:10519000134B1B68002B02D1114B124A1A60104BA3
:1051A0001A687B6813443A699A4207D212F09CFF4E
:1051B00003460C221A604FF0FF3309E0084B1B68CE
:1051C000FB60074B1A687B681344054A1360FB6851
:1051D00018461837BD4680BD0000022000040000BC
:1051E000B80D00200825002080B400AF064BD3F88E
:1051F0008830054A43F47003C2F8883000BFBD46CA
:105200005DF8047B704700BF00ED00E080B400AFA4
:105210000D4B00221A700C4B00225A700A4B0022D0
:105220009A70094B4FF000025A60074B4FF0000292
:105230009A60054B00221A61034B00221A7500BFC9
:10524000BD465DF8047B7047BC0D002080B500AF03
:105250000748FBF7E8FE0346002B05D00548FEF79C
:10526000BFFC4FF0FF3300E00023184680BD00BFB5
:10527000BC0D002064AD010880B500AF0748FBF706
:10528000E6FE0346002B05D00548FEF7A9FC4FF0CB
:10529000FF3300E00023184680BD00BFBC0D002096
:1052A00084AD010880B500AF0748FBF7E4FE034674
:1052B000002B05D00548FEF793FC4FF0FF3300E0CC
:1052C0000023184680BD00BFBC0D0020A8AD01081A
:1052D00080B500AF0748FBF720FF0346002B05D041
:1052E0000548FEF77DFC4FF0FF3300E00023184631
:1052F00080BD00BFBC0D0020C8AD010880B582B0E4
:1053000000AF0346FB71FB7919460848FBF730FFF5
:105310000346002B05D00648FEF762FC4FF0FF3332
:1053200000E0002318460837BD4680BDBC0D0020B4
:10533000E8AD010890B585B000AF87ED010A97EDA3
:10534000010A0E48FBF738FF0346FB7397F90F304D
:10535000002B0DD097F90F407868FBF7F5F802465F
:105360000B4621460648FEF73BFC4FF0FF3300E0BA
:10537000002318461437BD4690BD00BFBC0D002069
:1053800010AE010880B400AF0F4B00221A700E4B14
:1053900000225A700C4B00229A700B4B4FF0000207
:1053A0005A60094B00229A73074B00229A73064BEE
:1053B000002283F84120044B002283F8422000BFE2
:1053C000BD465DF8047B7047F40D002080B500AF4A
:1053D0000548FCF7DBF80346002B02D04FF0FF3303
:1053E00000E00023184680BDF40D002080B500AF1A
:1053F0000548FCF7F4F80346002B02D04FF0FF33CA
:1054000000E00023184680BDF40D002080B500AFF9
:105410000548FCF70DF90346002B02D04FF0FF338F
:1054200000E00023184680BDF40D002080B500AFD9
:105430000548FCF72AF90346002B02D04FF0FF3352
:1054400000E00023184680BDF40D002080B582B036
:1054500000AF0346FB71FB7919460748FCF742F998
:105460000346002B02D04FF0FF3300E00023184624
:105470000837BD4680BD00BFF40D002080B582B066
:1054800000AF87ED010A97ED010A0748FCF75FF9C5
:105490000346002B02D04FF0FF3300E000231846F4
:1054A0000837BD4680BD00BFF40D002080B582B036
:1054B00000AF78604FF40041054804F0F3FF034665
:1054C0001A467B681A70002318460837BD4680BD0F
:1054D000000C024080B582B000AF78604FF480616C
:1054E000054804F0DFFF03461A467B681A70002364
:1054F00018460837BD4680BD000C024080B582B01A
:1055000000AF78607B68002B07D10648FEF768FB88
:105510006FF00101786801F01DF800BF18460837E8
:10552000BD4680BD44AE010880B485B000AFF860D0
:105530000B4687ED010A7B8113467B72FB681B7962
:10554000002B34D0FB689B78002B30D1FB6893EDA7
:10555000077AFB68D3ED087AB4EE677AF1EE10FAB9
:1055600027D0FB68DA69FB681A62FB6893ED067A5C
:10557000FB68D3ED077AB4EEE77AF1EE10FA03DDBB
:10558000FB6801229A710EE0FB6893ED067AFB68D6
:10559000D3ED077AB4EEE77AF1EE10FA00D409E021
:1055A000FB6802229A71FB687A7A5A7102E000BFA6
:1055B00000E000BF18461437BD465DF8047B704715
:1055C00080B582B000AF786039607B68002B02D074
:1055D0003B68002B0AD10948FEF702FB6FF001017E
:1055E000786800F0B7FF6FF0010303E07B683A686A
:1055F0001A65002318460837BD4680BD58AE01081D
:1056000080B582B000AF786039607B68002B02D033
:105610003B68002B07D10848FEF7E2FA6FF0010162
:10562000786800F097FF7B683A685A6500BF1846B3
:105630000837BD4680BD00BF84AE010880B582B08A
:1056400000AF786039607B68002B02D03B68002B8C
:1056500007D10948FEF7C4FA6FF00101786800F03D
:1056600079FF7B683A68583307CA83E8070000BFB0
:1056700018460837BD4680BDA8AE010880B584B085
:1056800000AF78607B68002B04D16FF0010178686F
:1056900000F060FF786800F03FFB7B681B78082B08
:1056A00000F21E8301A252F823F000BFD156000879
:1056B000F1560008CB570008B75800087D5900087C
:1056C000CD5A0008955B0008215C00085F5C00086B
:1056D0007B681B79002B00F00783786800F078FB6B
:1056E000786800F013FC0121786800F0D9FBFBE238
:1056F0007B681B79002B0AD1786800F069FB786819
:1057000000F025FC0021786800F0CAFBEEE27B681F
:1057100093F82D30002B0AD0786800F059FB786898
:1057200000F0CFFE0721786800F0BAFBDEE27B686C
:1057300093F82C30002B04D17B6893F82B30002B8E
:105740000AD0786800F044FB786800F09AFD0321E5
:10575000786800F0A5FB37E07B6893F82A30002BCF
:1057600004D17B6893F82930002B0AD0786800F0C8
:105770002FFB786800F0BBFD0521786800F090FBF6
:1057800022E07B6893F82C30002B40F0AF827B68DE
:1057900093F82B30002B40F0A9827B6893F82A30D5
:1057A000002B40F0A3827B6893F82930002B40F057
:1057B0009D82786800F00CFB786800F032FE0421CE
:1057C000786800F06DFB91E290E27B681B79002B1A
:1057D0000AD1786800F0FCFA786800F0B8FB002184
:1057E000786800F05DFB83E27B6893F82D30002B36
:1057F0000AD0786800F0ECFA786800F062FE0721C1
:10580000786800F04DFB73E27B6893F82C30002B36
:1058100004D17B6893F82B30002B0AD0786800F015
:10582000D7FA786800F02DFD0321786800F038FB86
:1058300040E07B689B79022B0ED17B689B78002B24
:105840000AD1786800F0C4FA786800F019FC0621E3
:10585000786800F025FB2DE07B6893ED067A7B6885
:10586000D3ED077AB4EEE77AF1EE10FA12D87B683E
:10587000D3ED077AF5EEC07AF1EE10FA0ADD78681A
:1058800000F0A6FA786800F0A9FD0821786800F019
:1058900007FB0FE07B685B79002B40F0298278687A
:1058A00000F096FA786800F070FB0821786800F044
:1058B000F7FA1DE21CE27B68DB78002B09D07B68DD
:1058C0000022DA707B6800229A70AB48FEF788F9F4
:1058D00010E07B689B78002B0CD07B680122DA708B
:1058E0007B6802229A717B685A697B689A60A34838
:1058F000FEF776F97B681B79002B0AD1786800F0F7
:1059000067FA786800F023FB0021786800F0C8FA95
:10591000F0E17B6893F82D30002B0AD0786800F016
:1059200057FA786800F0CDFD0721786800F0B8FAE2
:10593000E0E17B689B79022B40F0DC817B68D3ED52
:10594000027AF5EEC07AF1EE10FA00DCD2E17B6863
:1059500093ED027A7B68D3ED047AB4EEE77AF1EE48
:1059600010FA00D9C6E1786800F032FA786800F0E1
:10597000BCFB0421786800F093FABBE17B689B785C
:10598000FB737B681B79002B0AD1786800F020FA42
:10599000786800F0DCFA0021786800F081FA49E0CC
:1059A0007B6893F82D30002B0AD0786800F010FA4D
:1059B000786800F086FD0721786800F071FA39E018
:1059C0007B6893F82C30002B04D17B6893F82B3044
:1059D000002B1AD0FB7B002B0ED07B68DB78002BD2
:1059E0000AD1786800F0F4F9786800F04AFC0321E5
:1059F000786800F055FA8AE17B68002283F82C2051
:105A00007B68002283F82B2081E17B6893F82A30A1
:105A1000002B04D17B6893F82930002B0AD07868DA
:105A200000F0D6F9786800F062FC0521786800F093
:105A300037FA6CE1FB7B002B40F05E817B689B7941
:105A4000012B0AD1786800F0C3F9786800F0F3FA06
:105A50000621786800F024FA50E17B6893ED067A1D
:105A60007B68D3ED077AB4EEE77AF1EE10FA1DDB2E
:105A70007B68D3ED077AF5EEC07AF1EE10FA15DD0A
:105A80007B6893ED077A7B68D3ED097AB4EEE77A09
:105A9000F1EE10FA0AD5786800F09AF9786800F00B
:105AA0009DFC0821786800F0FBF927E17B685B79B1
:105AB000002B40F02381786800F08AF9786800F0C4
:105AC00064FA0821786800F0EBF917E17B68DB786D
:105AD000002B09D07B685B6A1846FAF735FD024651
